:1000000019C033C032C031C0E6C02FC02EC02DC0D1
:100010002CC02BC02AC029C028C027C0C5C025C0FD
:1000200025C023C0FEC14EC220C01FC01EC01DC0BF
:100030001CC01BC011241FBECFEFD2E0DEBFCDBF5E
:1000400011E0A0E0B1E0E0EFFAE002C005900D920F
:10005000A032B107D9F711E0A0E2B1E001C01D92D2
:10006000A336B107E1F7EED041C5CACF1F920F9278
:100070000FB60F9211242F933F934F935F938F935B
:100080009F93AF93BF9380912C0190912D01A091EC
:100090002E01B0912F012091220130912301409136
:1000A000240150912501821B930BA40BB50B809367
:1000B000260190932701A0932801B09329018091F4
:1000C0002C0190912D01A0912E01B0912F018093D0
:1000D000220190932301A0932401B09325018091E4
:1000E000260190912701A0912801B0912901009744
:1000F000A105B10561F080912101181624F48091C9
:100100002B0187FD4DC08091210187FD44C05B9884
:100110008091210180932A0180912A01882331F165
:1001200080912A0187FD26C080912A0118168CF43F
:1001300081E080932B0129982A9A80912A018F3798
:1001400041F080912A01992787FD9095880F991F8A
:1001500087BDBF91AF919F918F915F914F913F91DB
:100160002F910F900FBE0F901F90189585B1897F2A
:1001700085B9EFCF8FEF80932B012A98299A809130
:100180002A01823834F380912A012EEF8202C001C5
:10019000112487BDDECF80912B0118160CF0B7CF4C
:1001A00010922A015B9AB8CF1F920F920FB60F924E
:1001B00011248F9380912A018F3739F080912A0181
:1001C00082381CF085B1897F85B98F910F900FBE61
:1001D0000F901F9018951F920F920FB60F92112437
:1001E0002F933F934F935F938F939F93AF93BF93BF
:1001F000309B1BC020912C0130912D0140912E018C
:1002000050912F0180912B01992787FD9095A92F5F
:10021000B92F820F931FA41FB51F80932C019093B9
:100220002D01A0932E01B0932F01BF91AF919F910B
:100230008F915F914F913F912F910F900FBE0F9033
:100240001F901895AF92BF92CF92DF92EF92FF92DC
:100250000F931F93DF93CF93CDB7DEB72E970FB6D3
:10026000F894DEBF0FBECDBF85B1897F85B984B15B
:10027000866084B93898409A12E01093680081E053
:1002800080936C005B98539A88E090E067EF71E090
:10029000F3D014BC85E085BD17BC83E080936E006D
:1002A000FE0131968EE0DF011D928A95E9F71C83ED
:1002B0008EEE91E09A878987F0936001E0935F0169
:1002C0008AE090E0BF015BD160915F0170916001B5
:1002D00088E590E054D110E040E0A42E41E0B42E37
:1002E00038ECC32ED12C28EE33E0C6010197F1F78C
:1002F00021503040D1F78091260190912701A091A3
:100300002801B09129010097A105B10539F4809128
:100310002101882319F4112309F048C0809121019B
:100320002091260130912701409128015091290107
:10033000E0902201F0902301009124011091250109
:100340006DB77EB7685070400FB6F8947EBF0FBE91
:100350006DBFEDB7FEB73196ADB7BEB71296BC9282
:10036000AE921197992787FD909593838283358369
:100370002483F782E6822FD1809126019091270174
:10038000A0912801B09129012DB73EB7285F3F4FBA
:100390000FB6F8943EBF0FBE2DBF0097A105B10563
:1003A000D9F4809121018823B9F411E080912001D2
:1003B000882309F498CF60915F017091600188E40F
:1003C00090E0DDD060915F01709160018FE390E07B
:1003D000D6D01092200187CF10E0E8CF982F8091DF
:1003E0005C018823E1F3892FA0D090E008951F934A
:1003F000182F8DE39AD0812F98D0812F8153893087
:1004000048F4E12FF0E0EA51FF4F80818093210111
:1004100010922001103319F481E0809320011F9184
:1004200008951F920F920FB60F9211242F933F93AE
:100430004F935F936F937F938F939F93AF93BF93EC
:10044000EF93FF938091C600E0913001F09131016C
:10045000309709F00995FF91EF91BF91AF919F916E
:100460008F917F916F915F914F913F912F910F905D
:100470000FBE0F901F9018959C0110925A01109278
:100480005B0198E290935C0121153105D1F082E087
:100490008093C0009093C10086E08093C2002093B7
:1004A000C4003093C500519A5098589A8091C10069
:1004B00080698093C100709331016093300178941A
:1004C0000895FFCF1F920F920FB60F9211248F93B2
:1004D0009F93EF93FF9380915C01883200F5909198
:1004E0005B01E92FF0E0EE5CFE4F80818093C60057
:1004F0009F5F90935B0180915C018F5F80935C01B3
:1005000080915B01883210F010925B01FF91EF91B6
:100510009F918F910F900FBE0F901F901895809113
:10052000C1008F7D8093C100F1CF982F80915C0135
:100530008823E1F0F89480915A01E82FF0E0EE5C16
:10054000FE4F90838F5F80935A0180915A018832C9
:1005500010F010925A0190915C01915090935C01BF
:100560009F5F983231F07894892F089590E0892F19
:1005700008958091C10080628093C100F4CF0F93F1
:100580001F93CF93DF938C01EB018B8181FF1BC005
:1005900082FF0DC02E813F818C819D8128173907F4
:1005A00064F4E881F9810193F983E88306C0E88562
:1005B000F985802F0995892B31F48E819F810196D1
:1005C0009F838E8302C00FEF1FEFC801DF91CF9191
:1005D0001F910F910895A0E0B0E0E0EFF2E05FC25C
:1005E000FE0135966191719180915F01909160015A
:1005F000AF0103D02096E2E06EC2ABE0B0E0E2E0F3
:10060000F3E03DC23C012B015A01FC011782168226
:10061000838181FD03C06FEF7FEFB9C19AE0892E1E
:100620001E010894211C311CF3012381F20123FDDA
:10063000859123FF81912F01882309F4A5C185327B
:1006400039F423FD859123FF81912F01853221F417
:1006500090E0B30194DFE8CF982FFF24EE24992493
:10066000FFE1FF15D0F09B3269F09C3228F4903204
:1006700059F0933291F40EC09D3249F0903369F4F1
:1006800041E024C052E0F52A84E0F82A28C098E02E
:10069000F92A25C0E0E1FE2A22C0F7FC29C0892FF3
:1006A00080538A3070F4F6FE05C0989C902C11247B
:1006B000980E15C0E89CE02C1124E80EF0E2FF2A09
:1006C0000EC09E3229F4F6FC5FC140E4F42A07C054
:1006D0009C3619F450E8F52A02C0983649F4F20124
:1006E00023FD959123FF91912F01992309F0B8CF14
:1006F000892F8554833018F08052833038F444E0D9
:1007000050E0A40EB51E5FE359830FC0933631F05D
:10071000933779F0933509F052C01FC0F5018081FD
:10072000898342E050E0A40EB51E610101E010E0B3
:1007300011C0F501C080D180F6FC03C06FEF7FEFE0
:1007400002C0692D70E042E050E0A40EB51EC60163
:100750002DD18C015FE7F52213C0F501C080D18057
:10076000F6FC03C06FEF7FEF02C0692D70E042E03E
:1007700050E0A40EB51EC6010ED18C0150E8F52A3A
:10078000F3FE06C018C080E290E0B301F8DEEA9400
:100790008E2D90E008171907B0F30DC0F601F7FC95
:1007A0008591F7FE81916F0190E0B301E8DEE110E1
:1007B000EA94015010400115110581F7E2C094360A
:1007C00011F0993661F5F7FE08C0F50120813181FD
:1007D0004281538184E090E00AC0F50180819181DB
:1007E0009C01442737FD4095542F82E090E0A80EED
:1007F000B91E9FE6F92257FF09C0509540953095E4
:1008000021953F4F4F4F5F4FE0E8FE2ACA01B901E3
:10081000A1012AE030E0D5D0D82ED2183FC09537BC
:1008200029F41F2D1F7E2AE030E01DC01F2D197FE7
:100830009F3661F0903720F4983509F0A5C00FC0BD
:10084000903739F0983709F09FC004C028E030E0B5
:100850000AC0106114FD146020E130E004C014FDF2
:10086000166020E132E017FF08C0F5016081718158
:100870008281938144E050E008C0F501808191813C
:10088000BC0180E090E042E050E0A40EB51EA10162
:1008900098D0D82ED2188FE7F82EF122F6FE0BC092
:1008A0005EEFF522D91438F4F4FE07C0F2FC05C05F
:1008B0008FEEF82202C01D2D01C0192DF4FE0DC0CF
:1008C000FE01ED0DF11D8081803319F499EEF922BE
:1008D00008C01F5FF2FE05C003C08F2D867809F0A7
:1008E0001F5F0F2DF3FC13C0F0FE0EC01E1510F09D
:1008F0009D2C0AC09D2C9E0C911A1E2D05C080E2D5
:1009000090E0B3013CDE1F5F1E15C8F304C01E1546
:1009100010F4E11A01C0EE2404FF0EC080E390E061
:10092000B3012DDE02FF1BC001FD03C088E790E08C
:100930000EC088E590E00BC0802F867881F001FF23
:1009400002C08BE201C080E2F7FC8DE290E0B301CF
:1009500016DE05C080E390E0B30111DE9A94D9144D
:10096000C8F3DA94F101ED0DF11D808190E0B3013F
:1009700006DEDD20B1F705C080E290E0B301FFDDC7
:10098000EA94EE20C9F750CEF30166817781CB015E
:100990002B96E2E190C0FC0105906150704001107F
:1009A000D8F7809590958E0F9F1F0895FC01615098
:1009B000704001900110D8F7809590958E0F9F1F81
:1009C0000895FA01AA27283051F1203181F1E894E5
:1009D0006F936E7F6E5F7F4F8F4F9F4FAF4FB1E032
:1009E0003ED0B4E03CD0670F781F891F9A1FA11D2D
:1009F000680F791F8A1F911DA11D6A0F711D811D2E
:100A0000911DA11D20D009F468943F912AE0269FF2
:100A100011243019305D3193DEF6CF010895462F51
:100A20004770405D4193B3E00FD0C9F7F6CF462F32
:100A30004F70405D4A3318F0495D31FD405241939B
:100A400002D0A9F7EACFB4E0A69597958795779558
:100A50006795BA95C9F700976105710508959B01DF
:100A6000AC010A2E06945795479537952795BA9568
:100A7000C9F7620F731F841F951FA01D08952F9241
:100A80003F924F925F926F927F928F929F92AF921E
:100A9000BF92CF92DF92EF92FF920F931F93CF936B
:100AA000DF93CDB7DEB7CA1BDB0B0FB6F894DEBF02
:100AB0000FBECDBF09942A88398848885F846E8428
:100AC0007D848C849B84AA84B984C884DF80EE8072
:100AD000FD800C811B81AA81B981CE0FD11D0FB67B
:100AE000F894DEBF0FBECDBFED010895F894FFCF9F
:100AF0002020733D252D346420763D252D3464203F
:100B0000783D25640D0A0081C0E0F0001020407F90
:00000001FF
